{
  "contractName": "Lotto",
  "abi": [
    {
      "payable": true,
      "stateMutability": "payable",
      "type": "fallback"
    },
    {
      "constant": true,
      "inputs": [],
      "name": "check",
      "outputs": [
        {
          "internalType": "bool",
          "name": "bet_waiting",
          "type": "bool"
        },
        {
          "internalType": "uint256",
          "name": "amount",
          "type": "uint256"
        }
      ],
      "payable": false,
      "stateMutability": "view",
      "type": "function"
    }
  ],
  "bytecode": "0x60806040526000805534801561001457600080fd5b506101ec806100246000396000f3fe60806040526004361061001e5760003560e01c8063919840ad14610090575b336001600080815480929190600101919050556002811061003b57fe5b0160006101000a81548173ffffffffffffffffffffffffffffffffffffffff021916908373ffffffffffffffffffffffffffffffffffffffff1602179055506001600054111561008e5761008d6100c6565b5b005b34801561009c57600080fd5b506100a5610180565b60405180831515151581526020018281526020019250505060405180910390f35b60006002600143034060001c816100d957fe5b069050600181600281106100e957fe5b0160009054906101000a900473ffffffffffffffffffffffffffffffffffffffff1673ffffffffffffffffffffffffffffffffffffffff166108fc3073ffffffffffffffffffffffffffffffffffffffff16319081150290604051600060405180830381858888f19350505050158015610167573d6000803e3d6000fd5b50600080819055506001600061017d91906101a9565b50565b6000806001600054143073ffffffffffffffffffffffffffffffffffffffff1631915091509091565b50600081556001016000905556fea265627a7a72315820c6ec0f050193ec65ddc9b96de8945ef98604bd22b550beb06ee17f0de4d3890d64736f6c634300050c0032",
  "source": "pragma solidity ^0.5.3;\r\n\r\ncontract Lotto {\r\n  uint contributors = 0;\r\n  address payable[2] private users;\r\n\r\n  function check() external view returns (bool bet_waiting, uint256 amount){\r\n    return (contributors == 1, address(this).balance);\r\n  }\r\n\r\n  function() external payable {\r\n    users[contributors++] = msg.sender;\r\n\r\n    if (contributors > 1) {\r\n      drawWinner();\r\n    }\r\n  }\r\n\r\n  function drawWinner() private {\r\n    uint random = uint(blockhash(block.number-1))%2;\r\n\r\n    users[random].transfer(address(this).balance);\r\n\r\n    contributors = 0;\r\n    delete users;\r\n  }\r\n}\r\n",
  "sourcePath": "D:/Documents/UIB/INF219/truffleTest/templateTest/contracts/Lotto.sol",
  "compiler": {
    "name": "solc",
    "version": "0.5.12+commit.7709ece9.Emscripten.clang"
  },
  "schemaVersion": "3.0.20",
  "updatedAt": "2020-01-13T20:41:42.764Z",
  "devdoc": {
    "methods": {}
  },
  "userdoc": {
    "methods": {}
  }
}