{
  "contractName": "Lotto",
  "abi": [
    {
      "payable": true,
      "stateMutability": "payable",
      "type": "fallback"
    },
    {
      "constant": true,
      "inputs": [],
      "name": "check",
      "outputs": [
        {
          "internalType": "bool",
          "name": "bet_waiting",
          "type": "bool"
        },
        {
          "internalType": "uint256",
          "name": "amount",
          "type": "uint256"
        }
      ],
      "payable": false,
      "stateMutability": "view",
      "type": "function"
    }
  ],
  "bytecode": "0x608060405267016345785d8a0000600055600060015573ce4f56a076a6bd8ab2ba2e351a560d5108cbc112600460006101000a81548173ffffffffffffffffffffffffffffffffffffffff021916908373ffffffffffffffffffffffffffffffffffffffff16021790555034801561007657600080fd5b506101ec806100866000396000f3fe60806040526004361061001e5760003560e01c8063919840ad14610090575b33600260016000815480929190600101919050556002811061003c57fe5b0160006101000a81548173ffffffffffffffffffffffffffffffffffffffff021916908373ffffffffffffffffffffffffffffffffffffffff16021790555060018054111561008e5761008d6100c6565b5b005b34801561009c57600080fd5b506100a5610181565b60405180831515151581526020018281526020019250505060405180910390f35b60006002600143034060001c816100d957fe5b069050600281600281106100e957fe5b0160009054906101000a900473ffffffffffffffffffffffffffffffffffffffff1673ffffffffffffffffffffffffffffffffffffffff166108fc3073ffffffffffffffffffffffffffffffffffffffff16319081150290604051600060405180830381858888f19350505050158015610167573d6000803e3d6000fd5b5060006001819055506002600061017e91906101a9565b50565b60008060018054143073ffffffffffffffffffffffffffffffffffffffff1631915091509091565b50600081556001016000905556fea265627a7a72315820d8fb814d011906ebaed9f0757361e960222aa541a9aa7ea410d448c8f99a250964736f6c634300050c0032",
  "source": "pragma solidity ^0.5.3;\r\n\r\ncontract Lotto {\r\n  uint a = 100000000000000000; //1 eth in wei units\r\n  uint contributors = 0;\r\n  address payable[2] private users;\r\n  address payable private acc = 0xce4f56a076a6Bd8ab2Ba2E351a560d5108CbC112;\r\n\r\n  function check() external view returns (bool bet_waiting, uint256 amount){\r\n    return (contributors == 1, address(this).balance);\r\n  }\r\n\r\n  function() external payable {\r\n    users[contributors++] = msg.sender;\r\n\r\n    if (contributors > 1) {\r\n      drawWinner();\r\n    }\r\n  }\r\n\r\n  function drawWinner() private {\r\n    uint random = uint(blockhash(block.number-1))%2; //not really a random number\r\n\r\n    users[random].transfer(address(this).balance);\r\n    //acc.transfer(a);\r\n\r\n    contributors = 0;\r\n    delete users;\r\n  }\r\n}\r\n",
  "sourcePath": "D:/Documents/UIB/INF219/truffleTest/templateTest/contracts/Lotto.sol",
  "compiler": {
    "name": "solc",
    "version": "0.5.12+commit.7709ece9.Emscripten.clang"
  },
  "schemaVersion": "3.0.20",
  "updatedAt": "2020-01-14T14:23:51.051Z",
  "networkType": "ethereum",
  "devdoc": {
    "methods": {}
  },
  "userdoc": {
    "methods": {}
  }
}